{
  "contractName": "UlaTokenSale",
  "abi": [
    {
      "constant": true,
      "inputs": [],
      "name": "tokenContract",
      "outputs": [
        {
          "name": "",
          "type": "address"
        }
      ],
      "payable": false,
      "stateMutability": "view",
      "type": "function"
    },
    {
      "constant": true,
      "inputs": [],
      "name": "tokenPrice",
      "outputs": [
        {
          "name": "",
          "type": "uint256"
        }
      ],
      "payable": false,
      "stateMutability": "view",
      "type": "function"
    },
    {
      "inputs": [
        {
          "name": "_tokenContract",
          "type": "address"
        },
        {
          "name": "_tokenPrice",
          "type": "uint256"
        }
      ],
      "payable": false,
      "stateMutability": "nonpayable",
      "type": "constructor"
    },
    {
      "anonymous": false,
      "inputs": [
        {
          "indexed": false,
          "name": "buyer",
          "type": "address"
        },
        {
          "indexed": false,
          "name": "amount",
          "type": "uint256"
        }
      ],
      "name": "Sell",
      "type": "event"
    },
    {
      "constant": false,
      "inputs": [
        {
          "name": "_numberOfTokens",
          "type": "uint256"
        }
      ],
      "name": "buyTokens",
      "outputs": [],
      "payable": true,
      "stateMutability": "payable",
      "type": "function"
    }
  ],
  "bytecode": "0x608060405234801561001057600080fd5b5060405160408061034c8339810180604052604081101561003057600080fd5b810190808051906020019092919080519060200190929190505050336000806101000a81548173ffffffffffffffffffffffffffffffffffffffff021916908373ffffffffffffffffffffffffffffffffffffffff16021790555081600160006101000a81548173ffffffffffffffffffffffffffffffffffffffff021916908373ffffffffffffffffffffffffffffffffffffffff160217905550806002819055505050610268806100e46000396000f3fe608060405260043610610057576000357c0100000000000000000000000000000000000000000000000000000000900463ffffffff1680633610724e1461005c57806355a373d61461008a5780637ff9b596146100e1575b600080fd5b6100886004803603602081101561007257600080fd5b810190808035906020019092919050505061010c565b005b34801561009657600080fd5b5061009f610210565b604051808273ffffffffffffffffffffffffffffffffffffffff1673ffffffffffffffffffffffffffffffffffffffff16815260200191505060405180910390f35b3480156100ed57600080fd5b506100f6610236565b6040518082815260200191505060405180910390f35b600160009054906101000a900473ffffffffffffffffffffffffffffffffffffffff1673ffffffffffffffffffffffffffffffffffffffff1663a9059cbb33836040518363ffffffff167c0100000000000000000000000000000000000000000000000000000000028152600401808373ffffffffffffffffffffffffffffffffffffffff1673ffffffffffffffffffffffffffffffffffffffff16815260200182815260200192505050602060405180830381600087803b1580156101d157600080fd5b505af11580156101e5573d6000803e3d6000fd5b505050506040513d60208110156101fb57600080fd5b81019080805190602001909291905050505050565b600160009054906101000a900473ffffffffffffffffffffffffffffffffffffffff1681565b6002548156fea165627a7a723058200da1ca75d6775effa9bead53b9a0b3c1610890babecbf6fab3b7b4432c8ae4db0029",
  "source": "pragma solidity ^0.5.0;\r\nimport \"./UlaToken.sol\";\r\n\r\ncontract UlaTokenSale {\r\n\r\n    address admin;\r\n    UlaToken public tokenContract;\r\n    uint256 public tokenPrice;\r\n\r\n    event Sell(address buyer, uint256 amount);\r\n\r\n    constructor(UlaToken _tokenContract, uint256 _tokenPrice) public {\r\n        admin = msg.sender;\r\n        tokenContract = _tokenContract;\r\n        tokenPrice = _tokenPrice;\r\n    }\r\n\r\n    function buyTokens(uint256 _numberOfTokens) public payable {\r\n        //require(msg.value >= _numberOfTokens*tokenPrice);\r\n        //require(_numberOfTokens <= tokenContract.balanceOf(address(this)));\r\n        tokenContract.transfer(msg.sender, _numberOfTokens);\r\n        \r\n        //emit Sell(msg.sender, _numberOfTokens);\r\n    }\r\n}",
  "sourcePath": "C:/Users/Admin/Documents/Ethereum course 201/DappUniversity/token-sale/contracts/UlaTokenSale.sol",
  "compiler": {
    "name": "solc",
    "version": "0.5.0+commit.1d4f565a.Emscripten.clang"
  },
  "schemaVersion": "3.0.16",
  "updatedAt": "2020-12-05T19:58:13.312Z",
  "devdoc": {
    "methods": {}
  },
  "userdoc": {
    "methods": {}
  }
}